{"abi":[{"inputs":[{"internalType":"address payable","name":"_c1","type":"address"},{"internalType":"address payable","name":"_c2","type":"address"}],"stateMutability":"nonpayable","type":"constructor","name":"constructor"},{"inputs":[],"name":"Child1","outputs":[{"internalType":"address payable","name":"","type":"address"}],"stateMutability":"view","type":"function"},{"inputs":[],"name":"Child2","outputs":[{"internalType":"address payable","name":"","type":"address"}],"stateMutability":"view","type":"function"},{"inputs":[],"name":"amountToSendToEachChild","outputs":[{"internalType":"uint256","name":"","type":"uint256"}],"stateMutability":"view","type":"function"},{"inputs":[{"internalType":"uint256","name":"","type":"uint256"}],"name":"children","outputs":[{"internalType":"address payable","name":"","type":"address"}],"stateMutability":"view","type":"function"},{"inputs":[],"name":"count","outputs":[{"internalType":"uint256","name":"","type":"uint256"}],"stateMutability":"view","type":"function"},{"inputs":[],"name":"declareDead","outputs":[],"stateMutability":"nonpayable","type":"function"},{"inputs":[],"name":"isPaid","outputs":[{"internalType":"bool","name":"","type":"bool"}],"stateMutability":"view","type":"function"},{"inputs":[],"name":"owner","outputs":[{"internalType":"address payable","name":"","type":"address"}],"stateMutability":"view","type":"function"},{"inputs":[],"name":"parentState","outputs":[{"internalType":"enum Will.State","name":"","type":"uint8"}],"stateMutability":"view","type":"function"},{"inputs":[],"name":"transferEth","outputs":[],"stateMutability":"payable","type":"function"}],"bytecode":"608060405261000f600247610122565b600455604080518082019091526001546001600160a01b0390811682526003541660208201526100439060069060026100b5565b5034801561005057600080fd5b5060405161064138038061064183398101604081905261006f91610160565b60008054336001600160a01b0319918216179091556005805460ff191690556001805482166001600160a01b039485161790556003805490911691909216179055610193565b82600281019282156100fd579160200282015b828111156100fd57825182546001600160a01b0319166001600160a01b039091161782556020909201916001909101906100c8565b5061010992915061010d565b5090565b5b80821115610109576000815560010161010e565b60008261013f57634e487b7160e01b600052601260045260246000fd5b500490565b80516001600160a01b038116811461015b57600080fd5b919050565b6000806040838503121561017357600080fd5b61017c83610144565b915061018a60208401610144565b90509250929050565b61049f806101a26000396000f3fe6080604052600436106100915760003560e01c80636f92e149116100595780636f92e149146101485780637002ce421461015d5780638da5cb5b1461017d578063d42db0fc1461019d578063f5ed1a5d146101bd57600080fd5b806306661abd14610096578063209ebc08146100bf5780633b10359a146100f0578063598526861461012857806369d9615e14610132575b600080fd5b3480156100a257600080fd5b506100ac60025481565b6040519081526020015b60405180910390f35b3480156100cb57600080fd5b506003546100e090600160a01b900460ff1681565b60405190151581526020016100b6565b3480156100fc57600080fd5b50600354610110906001600160a01b031681565b6040516001600160a01b0390911681526020016100b6565b6101306101e4565b005b34801561013e57600080fd5b506100ac60045481565b34801561015457600080fd5b5061013061036e565b34801561016957600080fd5b506101106101783660046103eb565b6103cb565b34801561018957600080fd5b50600054610110906001600160a01b031681565b3480156101a957600080fd5b50600154610110906001600160a01b031681565b3480156101c957600080fd5b506005546101d79060ff1681565b6040516100b6919061041a565b6000546001600160a01b031633146102435760405162461bcd60e51b815260206004820152601760248201527f596f7520617265206e6f7420746865206f776e6572212100000000000000000060448201526064015b60405180910390fd5b600160055460ff16600181111561025c5761025c610404565b1480156102785750600354600160a01b900460ff161515600114155b6102ac5760405162461bcd60e51b815260206004820152600560248201526422b93937b960d91b604482015260640161023a565b6006546004546040516001600160a01b03909216916108fc82150291906000818181858888f193505050501580156102e8573d6000803e3d6000fd5b506007546004546040516001600160a01b03909216916108fc82150291906000818181858888f19350505050158015610325573d6000803e3d6000fd5b5047801561036b576006546040516001600160a01b03909116906108fc8315029083906000818181858888f19350505050158015610367573d6000803e3d6000fd5b5050565b50565b600280541061037c57600080fd5b600060055460ff16600181111561039557610395610404565b1461039f57600080fd5b6005805460ff191660011790556103b46101e4565b600280549060006103c483610442565b9190505550565b600681600281106103db57600080fd5b01546001600160a01b0316905081565b6000602082840312156103fd57600080fd5b5035919050565b634e487b7160e01b600052602160045260246000fd5b602081016002831061043c57634e487b7160e01b600052602160045260246000fd5b91905290565b60006001820161046257634e487b7160e01b600052601160045260246000fd5b506001019056fea264697066735822122006af6eae08f62080eab53d756b14667b1010851e93400adfc2c508fd6bbe589364736f6c63430008100033","bytecodeSha1":"da675d79bd009a05fc0199459018bd3953ca8aa4","compiler":{"evm_version":"istanbul","optimizer":{"enabled":true,"runs":200},"version":"0.8.16+commit.07a7930e"},"contractName":"Will","language":"Solidity","natspec":{"kind":"dev","methods":{},"version":1},"opcodes":"PUSH1 0x80 PUSH1 0x40 MSTORE PUSH1 0x4 CALLDATASIZE LT PUSH2 0x91 JUMPI PUSH1 0x0 CALLDATALOAD PUSH1 0xE0 SHR DUP1 PUSH4 0x6F92E149 GT PUSH2 0x59 JUMPI DUP1 PUSH4 0x6F92E149 EQ PUSH2 0x148 JUMPI DUP1 PUSH4 0x7002CE42 EQ PUSH2 0x15D JUMPI DUP1 PUSH4 0x8DA5CB5B EQ PUSH2 0x17D JUMPI DUP1 PUSH4 0xD42DB0FC EQ PUSH2 0x19D JUMPI DUP1 PUSH4 0xF5ED1A5D EQ PUSH2 0x1BD JUMPI PUSH1 0x0 DUP1 REVERT JUMPDEST DUP1 PUSH4 0x6661ABD EQ PUSH2 0x96 JUMPI DUP1 PUSH4 0x209EBC08 EQ PUSH2 0xBF JUMPI DUP1 PUSH4 0x3B10359A EQ PUSH2 0xF0 JUMPI DUP1 PUSH4 0x59852686 EQ PUSH2 0x128 JUMPI DUP1 PUSH4 0x69D9615E EQ PUSH2 0x132 JUMPI JUMPDEST PUSH1 0x0 DUP1 REVERT JUMPDEST CALLVALUE DUP1 ISZERO PUSH2 0xA2 JUMPI PUSH1 0x0 DUP1 REVERT JUMPDEST POP PUSH2 0xAC PUSH1 0x2 SLOAD DUP2 JUMP JUMPDEST PUSH1 0x40 MLOAD SWAP1 DUP2 MSTORE PUSH1 0x20 ADD JUMPDEST PUSH1 0x40 MLOAD DUP1 SWAP2 SUB SWAP1 RETURN JUMPDEST CALLVALUE DUP1 ISZERO PUSH2 0xCB JUMPI PUSH1 0x0 DUP1 REVERT JUMPDEST POP PUSH1 0x3 SLOAD PUSH2 0xE0 SWAP1 PUSH1 0x1 PUSH1 0xA0 SHL SWAP1 DIV PUSH1 0xFF AND DUP2 JUMP JUMPDEST PUSH1 0x40 MLOAD SWAP1 ISZERO ISZERO DUP2 MSTORE PUSH1 0x20 ADD PUSH2 0xB6 JUMP JUMPDEST CALLVALUE DUP1 ISZERO PUSH2 0xFC JUMPI PUSH1 0x0 DUP1 REVERT JUMPDEST POP PUSH1 0x3 SLOAD PUSH2 0x110 SWAP1 PUSH1 0x1 PUSH1 0x1 PUSH1 0xA0 SHL SUB AND DUP2 JUMP JUMPDEST PUSH1 0x40 MLOAD PUSH1 0x1 PUSH1 0x1 PUSH1 0xA0 SHL SUB SWAP1 SWAP2 AND DUP2 MSTORE PUSH1 0x20 ADD PUSH2 0xB6 JUMP JUMPDEST PUSH2 0x130 PUSH2 0x1E4 JUMP JUMPDEST STOP JUMPDEST CALLVALUE DUP1 ISZERO PUSH2 0x13E JUMPI PUSH1 0x0 DUP1 REVERT JUMPDEST POP PUSH2 0xAC PUSH1 0x4 SLOAD DUP2 JUMP JUMPDEST CALLVALUE DUP1 ISZERO PUSH2 0x154 JUMPI PUSH1 0x0 DUP1 REVERT JUMPDEST POP PUSH2 0x130 PUSH2 0x36E JUMP JUMPDEST CALLVALUE DUP1 ISZERO PUSH2 0x169 JUMPI PUSH1 0x0 DUP1 REVERT JUMPDEST POP PUSH2 0x110 PUSH2 0x178 CALLDATASIZE PUSH1 0x4 PUSH2 0x3EB JUMP JUMPDEST PUSH2 0x3CB JUMP JUMPDEST CALLVALUE DUP1 ISZERO PUSH2 0x189 JUMPI PUSH1 0x0 DUP1 REVERT JUMPDEST POP PUSH1 0x0 SLOAD PUSH2 0x110 SWAP1 PUSH1 0x1 PUSH1 0x1 PUSH1 0xA0 SHL SUB AND DUP2 JUMP JUMPDEST CALLVALUE DUP1 ISZERO PUSH2 0x1A9 JUMPI PUSH1 0x0 DUP1 REVERT JUMPDEST POP PUSH1 0x1 SLOAD PUSH2 0x110 SWAP1 PUSH1 0x1 PUSH1 0x1 PUSH1 0xA0 SHL SUB AND DUP2 JUMP JUMPDEST CALLVALUE DUP1 ISZERO PUSH2 0x1C9 JUMPI PUSH1 0x0 DUP1 REVERT JUMPDEST POP PUSH1 0x5 SLOAD PUSH2 0x1D7 SWAP1 PUSH1 0xFF AND DUP2 JUMP JUMPDEST PUSH1 0x40 MLOAD PUSH2 0xB6 SWAP2 SWAP1 PUSH2 0x41A JUMP JUMPDEST PUSH1 0x0 SLOAD PUSH1 0x1 PUSH1 0x1 PUSH1 0xA0 SHL SUB AND CALLER EQ PUSH2 0x243 JUMPI PUSH1 0x40 MLOAD PUSH3 0x461BCD PUSH1 0xE5 SHL DUP2 MSTORE PUSH1 0x20 PUSH1 0x4 DUP3 ADD MSTORE PUSH1 0x17 PUSH1 0x24 DUP3 ADD MSTORE PUSH32 0x596F7520617265206E6F7420746865206F776E65722121000000000000000000 PUSH1 0x44 DUP3 ADD MSTORE PUSH1 0x64 ADD JUMPDEST PUSH1 0x40 MLOAD DUP1 SWAP2 SUB SWAP1 REVERT JUMPDEST PUSH1 0x1 PUSH1 0x5 SLOAD PUSH1 0xFF AND PUSH1 0x1 DUP2 GT ISZERO PUSH2 0x25C JUMPI PUSH2 0x25C PUSH2 0x404 JUMP JUMPDEST EQ DUP1 ISZERO PUSH2 0x278 JUMPI POP PUSH1 0x3 SLOAD PUSH1 0x1 PUSH1 0xA0 SHL SWAP1 DIV PUSH1 0xFF AND ISZERO ISZERO PUSH1 0x1 EQ ISZERO JUMPDEST PUSH2 0x2AC JUMPI PUSH1 0x40 MLOAD PUSH3 0x461BCD PUSH1 0xE5 SHL DUP2 MSTORE PUSH1 0x20 PUSH1 0x4 DUP3 ADD MSTORE PUSH1 0x5 PUSH1 0x24 DUP3 ADD MSTORE PUSH5 0x22B93937B9 PUSH1 0xD9 SHL PUSH1 0x44 DUP3 ADD MSTORE PUSH1 0x64 ADD PUSH2 0x23A JUMP JUMPDEST PUSH1 0x6 SLOAD PUSH1 0x4 SLOAD PUSH1 0x40 MLOAD PUSH1 0x1 PUSH1 0x1 PUSH1 0xA0 SHL SUB SWAP1 SWAP3 AND SWAP2 PUSH2 0x8FC DUP3 ISZERO MUL SWAP2 SWAP1 PUSH1 0x0 DUP2 DUP2 DUP2 DUP6 DUP9 DUP9 CALL SWAP4 POP POP POP POP ISZERO DUP1 ISZERO PUSH2 0x2E8 JUMPI RETURNDATASIZE PUSH1 0x0 DUP1 RETURNDATACOPY RETURNDATASIZE PUSH1 0x0 REVERT JUMPDEST POP PUSH1 0x7 SLOAD PUSH1 0x4 SLOAD PUSH1 0x40 MLOAD PUSH1 0x1 PUSH1 0x1 PUSH1 0xA0 SHL SUB SWAP1 SWAP3 AND SWAP2 PUSH2 0x8FC DUP3 ISZERO MUL SWAP2 SWAP1 PUSH1 0x0 DUP2 DUP2 DUP2 DUP6 DUP9 DUP9 CALL SWAP4 POP POP POP POP ISZERO DUP1 ISZERO PUSH2 0x325 JUMPI RETURNDATASIZE PUSH1 0x0 DUP1 RETURNDATACOPY RETURNDATASIZE PUSH1 0x0 REVERT JUMPDEST POP SELFBALANCE DUP1 ISZERO PUSH2 0x36B JUMPI PUSH1 0x6 SLOAD PUSH1 0x40 MLOAD PUSH1 0x1 PUSH1 0x1 PUSH1 0xA0 SHL SUB SWAP1 SWAP2 AND SWAP1 PUSH2 0x8FC DUP4 ISZERO MUL SWAP1 DUP4 SWAP1 PUSH1 0x0 DUP2 DUP2 DUP2 DUP6 DUP9 DUP9 CALL SWAP4 POP POP POP POP ISZERO DUP1 ISZERO PUSH2 0x367 JUMPI RETURNDATASIZE PUSH1 0x0 DUP1 RETURNDATACOPY RETURNDATASIZE PUSH1 0x0 REVERT JUMPDEST POP POP JUMP JUMPDEST POP JUMP JUMPDEST PUSH1 0x2 DUP1 SLOAD LT PUSH2 0x37C JUMPI PUSH1 0x0 DUP1 REVERT JUMPDEST PUSH1 0x0 PUSH1 0x5 SLOAD PUSH1 0xFF AND PUSH1 0x1 DUP2 GT ISZERO PUSH2 0x395 JUMPI PUSH2 0x395 PUSH2 0x404 JUMP JUMPDEST EQ PUSH2 0x39F JUMPI PUSH1 0x0 DUP1 REVERT JUMPDEST PUSH1 0x5 DUP1 SLOAD PUSH1 0xFF NOT AND PUSH1 0x1 OR SWAP1 SSTORE PUSH2 0x3B4 PUSH2 0x1E4 JUMP JUMPDEST PUSH1 0x2 DUP1 SLOAD SWAP1 PUSH1 0x0 PUSH2 0x3C4 DUP4 PUSH2 0x442 JUMP JUMPDEST SWAP2 SWAP1 POP SSTORE POP JUMP JUMPDEST PUSH1 0x6 DUP2 PUSH1 0x2 DUP2 LT PUSH2 0x3DB JUMPI PUSH1 0x0 DUP1 REVERT JUMPDEST ADD SLOAD PUSH1 0x1 PUSH1 0x1 PUSH1 0xA0 SHL SUB AND SWAP1 POP DUP2 JUMP JUMPDEST PUSH1 0x0 PUSH1 0x20 DUP3 DUP5 SUB SLT ISZERO PUSH2 0x3FD JUMPI PUSH1 0x0 DUP1 REVERT JUMPDEST POP CALLDATALOAD SWAP2 SWAP1 POP JUMP JUMPDEST PUSH4 0x4E487B71 PUSH1 0xE0 SHL PUSH1 0x0 MSTORE PUSH1 0x21 PUSH1 0x4 MSTORE PUSH1 0x24 PUSH1 0x0 REVERT JUMPDEST PUSH1 0x20 DUP2 ADD PUSH1 0x2 DUP4 LT PUSH2 0x43C JUMPI PUSH4 0x4E487B71 PUSH1 0xE0 SHL PUSH1 0x0 MSTORE PUSH1 0x21 PUSH1 0x4 MSTORE PUSH1 0x24 PUSH1 0x0 REVERT JUMPDEST SWAP2 SWAP1 MSTORE SWAP1 JUMP JUMPDEST PUSH1 0x0 PUSH1 0x1 DUP3 ADD PUSH2 0x462 JUMPI PUSH4 0x4E487B71 PUSH1 0xE0 SHL PUSH1 0x0 MSTORE PUSH1 0x11 PUSH1 0x4 MSTORE PUSH1 0x24 PUSH1 0x0 REVERT JUMPDEST POP PUSH1 0x1 ADD SWAP1 JUMP INVALID LOG2 PUSH5 0x6970667358 0x22 SLT KECCAK256 MOD 0xAF PUSH15 0xAE08F62080EAB53D756B14667B1010 DUP6 0x1E SWAP4 BLOCKHASH EXP 0xDF 0xC2 0xC5 ADDMOD REVERT PUSH12 0xBE589364736F6C6343000810 STOP CALLER ","sha1":"ba0934fc2b386cef86a2094dfda9b234b0a2b76e","source":"// SPDX-License-Identifier\npragma solidity ^0.8.7;\n\ncontract Will{\n\n\taddress payable public owner;\n\taddress payable public Child1;\n\tuint public count;\n\taddress payable public Child2;\n\tbool public isPaid;\n\tuint256 public amountToSendToEachChild = (address(this).balance) / 2;\n\tState public parentState;\n\taddress payable[2] public children = [Child1, Child2];\n\n\tmodifier onlyOwner{\n\t\trequire(msg.sender  == owner, \"You are not the owner!!\");\n\t\t_;\n\t}\n\n\tenum State{\n\t\tAlive,\n\t\tDead\n\t}\n\n\tconstructor(address payable _c1, address payable _c2){\n\t\towner = payable(msg.sender);\n\t\tparentState = State.Alive;\n\t\tChild1 = payable(_c1);\n\t\tChild2 = payable(_c2);\n\t}\n\n\tfunction declareDead() public {\n\t\trequire(count < 2);\n\t\trequire(parentState == State.Alive);\n\t\tparentState = State.Dead;\n\t\ttransferEth();\n\t\tcount++;\t\t\n\t}\n\n\tfunction transferEth() payable public onlyOwner {\n\t\trequire(parentState == State.Dead && isPaid != true, \"Error\");\n\t\tchildren[0].transfer(amountToSendToEachChild);\n\t\tchildren[1].transfer(amountToSendToEachChild);\n\t\tuint256 currentBalance = address(this).balance;\n\t\tif(currentBalance > 0){\n\t\t\tchildren[0].transfer(currentBalance);\n\t\t}else{\n\t\t\tisPaid == true;\n\t\t}\n\t}\n}","sourcePath":"contracts/Will.sol","type":"contract","deployment":{"address":"0xc6c0FE1aA9e74911E1C2CCc6ebA264513D378a29","chainid":"1337","blockHeight":2}}