{
  "abi": [
    {
      "inputs": [
        {
          "internalType": "address payable",
          "name": "_c1",
          "type": "address"
        },
        {
          "internalType": "address payable",
          "name": "_c2",
          "type": "address"
        }
      ],
      "stateMutability": "nonpayable",
      "type": "constructor"
    },
    {
      "inputs": [],
      "name": "Child1",
      "outputs": [
        {
          "internalType": "address payable",
          "name": "",
          "type": "address"
        }
      ],
      "stateMutability": "view",
      "type": "function"
    },
    {
      "inputs": [],
      "name": "Child2",
      "outputs": [
        {
          "internalType": "address payable",
          "name": "",
          "type": "address"
        }
      ],
      "stateMutability": "view",
      "type": "function"
    },
    {
      "inputs": [],
      "name": "amountToSendToEachChild",
      "outputs": [
        {
          "internalType": "uint256",
          "name": "",
          "type": "uint256"
        }
      ],
      "stateMutability": "view",
      "type": "function"
    },
    {
      "inputs": [],
      "name": "c1b",
      "outputs": [
        {
          "internalType": "uint256",
          "name": "",
          "type": "uint256"
        }
      ],
      "stateMutability": "view",
      "type": "function"
    },
    {
      "inputs": [],
      "name": "c2b",
      "outputs": [
        {
          "internalType": "uint256",
          "name": "",
          "type": "uint256"
        }
      ],
      "stateMutability": "view",
      "type": "function"
    },
    {
      "inputs": [
        {
          "internalType": "uint256",
          "name": "",
          "type": "uint256"
        }
      ],
      "name": "children",
      "outputs": [
        {
          "internalType": "address payable",
          "name": "",
          "type": "address"
        }
      ],
      "stateMutability": "view",
      "type": "function"
    },
    {
      "inputs": [],
      "name": "count",
      "outputs": [
        {
          "internalType": "uint256",
          "name": "",
          "type": "uint256"
        }
      ],
      "stateMutability": "view",
      "type": "function"
    },
    {
      "inputs": [],
      "name": "declareDead",
      "outputs": [],
      "stateMutability": "nonpayable",
      "type": "function"
    },
    {
      "inputs": [],
      "name": "isPaid",
      "outputs": [
        {
          "internalType": "bool",
          "name": "",
          "type": "bool"
        }
      ],
      "stateMutability": "view",
      "type": "function"
    },
    {
      "inputs": [],
      "name": "owner",
      "outputs": [
        {
          "internalType": "address payable",
          "name": "",
          "type": "address"
        }
      ],
      "stateMutability": "view",
      "type": "function"
    },
    {
      "inputs": [],
      "name": "parentState",
      "outputs": [
        {
          "internalType": "enum Will.State",
          "name": "",
          "type": "uint8"
        }
      ],
      "stateMutability": "view",
      "type": "function"
    },
    {
      "inputs": [],
      "name": "revealBalance1",
      "outputs": [
        {
          "internalType": "uint256",
          "name": "",
          "type": "uint256"
        }
      ],
      "stateMutability": "nonpayable",
      "type": "function"
    },
    {
      "inputs": [],
      "name": "revealBalance2",
      "outputs": [
        {
          "internalType": "uint256",
          "name": "",
          "type": "uint256"
        }
      ],
      "stateMutability": "nonpayable",
      "type": "function"
    },
    {
      "inputs": [],
      "name": "transferEth",
      "outputs": [],
      "stateMutability": "payable",
      "type": "function"
    }
  ],
  "bytecode": "608060405261000f600247610122565b600655604080518082019091526001546001600160a01b0390811682526003541660208201526100439060089060026100b5565b5034801561005057600080fd5b5060405161070138038061070183398101604081905261006f91610160565b60008054336001600160a01b0319918216179091556007805460ff191690556001805482166001600160a01b039485161790556003805490911691909216179055610193565b82600281019282156100fd579160200282015b828111156100fd57825182546001600160a01b0319166001600160a01b039091161782556020909201916001909101906100c8565b5061010992915061010d565b5090565b5b80821115610109576000815560010161010e565b60008261013f57634e487b7160e01b600052601260045260246000fd5b500490565b80516001600160a01b038116811461015b57600080fd5b919050565b6000806040838503121561017357600080fd5b61017c83610144565b915061018a60208401610144565b90509250929050565b61055f806101a26000396000f3fe6080604052600436106100dd5760003560e01c80636f92e1491161007f57806388b0cbc91161005957806388b0cbc9146102195780638da5cb5b1461023d578063d42db0fc1461025d578063f5ed1a5d1461027d57600080fd5b80636f92e149146101ce5780637002ce42146101e357806378c46c4c1461020357600080fd5b80633b10359a116100bb5780633b10359a1461016057806349ca0ce21461019857806359852686146101ae57806369d9615e146101b857600080fd5b806306661abd146100e2578063138ecfd51461010b578063209ebc081461012f575b600080fd5b3480156100ee57600080fd5b506100f860025481565b6040519081526020015b60405180910390f35b34801561011757600080fd5b506009546001600160a01b03163160058190556100f8565b34801561013b57600080fd5b5060035461015090600160a01b900460ff1681565b6040519015158152602001610102565b34801561016c57600080fd5b50600354610180906001600160a01b031681565b6040516001600160a01b039091168152602001610102565b3480156101a457600080fd5b506100f860045481565b6101b66102a4565b005b3480156101c457600080fd5b506100f860065481565b3480156101da57600080fd5b506101b661042e565b3480156101ef57600080fd5b506101806101fe3660046104ab565b61048b565b34801561020f57600080fd5b506100f860055481565b34801561022557600080fd5b506008546001600160a01b03163160048190556100f8565b34801561024957600080fd5b50600054610180906001600160a01b031681565b34801561026957600080fd5b50600154610180906001600160a01b031681565b34801561028957600080fd5b506007546102979060ff1681565b60405161010291906104da565b6000546001600160a01b031633146103035760405162461bcd60e51b815260206004820152601760248201527f596f7520617265206e6f7420746865206f776e6572212100000000000000000060448201526064015b60405180910390fd5b600160075460ff16600181111561031c5761031c6104c4565b1480156103385750600354600160a01b900460ff161515600114155b61036c5760405162461bcd60e51b815260206004820152600560248201526422b93937b960d91b60448201526064016102fa565b6008546006546040516001600160a01b03909216916108fc82150291906000818181858888f193505050501580156103a8573d6000803e3d6000fd5b506009546006546040516001600160a01b03909216916108fc82150291906000818181858888f193505050501580156103e5573d6000803e3d6000fd5b5047801561042b576008546040516001600160a01b03909116906108fc8315029083906000818181858888f19350505050158015610427573d6000803e3d6000fd5b5050565b50565b600280541061043c57600080fd5b600060075460ff166001811115610455576104556104c4565b1461045f57600080fd5b6007805460ff191660011790556104746102a4565b6002805490600061048483610502565b9190505550565b6008816002811061049b57600080fd5b01546001600160a01b0316905081565b6000602082840312156104bd57600080fd5b5035919050565b634e487b7160e01b600052602160045260246000fd5b60208101600283106104fc57634e487b7160e01b600052602160045260246000fd5b91905290565b60006001820161052257634e487b7160e01b600052601160045260246000fd5b506001019056fea26469706673582212204d50647f25da57aec246e7b832526b854e7465f054bd810ac6b452e53700d6bc64736f6c63430008100033",
  "bytecodeSha1": "a2046ceafc5f8e84bffb65e85a89db1167565ee3",
  "compiler": {
    "evm_version": "istanbul",
    "optimizer": {
      "enabled": true,
      "runs": 200
    },
    "version": "0.8.16+commit.07a7930e"
  },
  "contractName": "Will",
  "language": "Solidity",
  "natspec": {
    "kind": "dev",
    "methods": {},
    "version": 1
  },
  "opcodes": "PUSH1 0x80 PUSH1 0x40 MSTORE PUSH1 0x4 CALLDATASIZE LT PUSH2 0xDD JUMPI PUSH1 0x0 CALLDATALOAD PUSH1 0xE0 SHR DUP1 PUSH4 0x6F92E149 GT PUSH2 0x7F JUMPI DUP1 PUSH4 0x88B0CBC9 GT PUSH2 0x59 JUMPI DUP1 PUSH4 0x88B0CBC9 EQ PUSH2 0x219 JUMPI DUP1 PUSH4 0x8DA5CB5B EQ PUSH2 0x23D JUMPI DUP1 PUSH4 0xD42DB0FC EQ PUSH2 0x25D JUMPI DUP1 PUSH4 0xF5ED1A5D EQ PUSH2 0x27D JUMPI PUSH1 0x0 DUP1 REVERT JUMPDEST DUP1 PUSH4 0x6F92E149 EQ PUSH2 0x1CE JUMPI DUP1 PUSH4 0x7002CE42 EQ PUSH2 0x1E3 JUMPI DUP1 PUSH4 0x78C46C4C EQ PUSH2 0x203 JUMPI PUSH1 0x0 DUP1 REVERT JUMPDEST DUP1 PUSH4 0x3B10359A GT PUSH2 0xBB JUMPI DUP1 PUSH4 0x3B10359A EQ PUSH2 0x160 JUMPI DUP1 PUSH4 0x49CA0CE2 EQ PUSH2 0x198 JUMPI DUP1 PUSH4 0x59852686 EQ PUSH2 0x1AE JUMPI DUP1 PUSH4 0x69D9615E EQ PUSH2 0x1B8 JUMPI PUSH1 0x0 DUP1 REVERT JUMPDEST DUP1 PUSH4 0x6661ABD EQ PUSH2 0xE2 JUMPI DUP1 PUSH4 0x138ECFD5 EQ PUSH2 0x10B JUMPI DUP1 PUSH4 0x209EBC08 EQ PUSH2 0x12F JUMPI JUMPDEST PUSH1 0x0 DUP1 REVERT JUMPDEST CALLVALUE DUP1 ISZERO PUSH2 0xEE JUMPI PUSH1 0x0 DUP1 REVERT JUMPDEST POP PUSH2 0xF8 PUSH1 0x2 SLOAD DUP2 JUMP JUMPDEST PUSH1 0x40 MLOAD SWAP1 DUP2 MSTORE PUSH1 0x20 ADD JUMPDEST PUSH1 0x40 MLOAD DUP1 SWAP2 SUB SWAP1 RETURN JUMPDEST CALLVALUE DUP1 ISZERO PUSH2 0x117 JUMPI PUSH1 0x0 DUP1 REVERT JUMPDEST POP PUSH1 0x9 SLOAD PUSH1 0x1 PUSH1 0x1 PUSH1 0xA0 SHL SUB AND BALANCE PUSH1 0x5 DUP2 SWAP1 SSTORE PUSH2 0xF8 JUMP JUMPDEST CALLVALUE DUP1 ISZERO PUSH2 0x13B JUMPI PUSH1 0x0 DUP1 REVERT JUMPDEST POP PUSH1 0x3 SLOAD PUSH2 0x150 SWAP1 PUSH1 0x1 PUSH1 0xA0 SHL SWAP1 DIV PUSH1 0xFF AND DUP2 JUMP JUMPDEST PUSH1 0x40 MLOAD SWAP1 ISZERO ISZERO DUP2 MSTORE PUSH1 0x20 ADD PUSH2 0x102 JUMP JUMPDEST CALLVALUE DUP1 ISZERO PUSH2 0x16C JUMPI PUSH1 0x0 DUP1 REVERT JUMPDEST POP PUSH1 0x3 SLOAD PUSH2 0x180 SWAP1 PUSH1 0x1 PUSH1 0x1 PUSH1 0xA0 SHL SUB AND DUP2 JUMP JUMPDEST PUSH1 0x40 MLOAD PUSH1 0x1 PUSH1 0x1 PUSH1 0xA0 SHL SUB SWAP1 SWAP2 AND DUP2 MSTORE PUSH1 0x20 ADD PUSH2 0x102 JUMP JUMPDEST CALLVALUE DUP1 ISZERO PUSH2 0x1A4 JUMPI PUSH1 0x0 DUP1 REVERT JUMPDEST POP PUSH2 0xF8 PUSH1 0x4 SLOAD DUP2 JUMP JUMPDEST PUSH2 0x1B6 PUSH2 0x2A4 JUMP JUMPDEST STOP JUMPDEST CALLVALUE DUP1 ISZERO PUSH2 0x1C4 JUMPI PUSH1 0x0 DUP1 REVERT JUMPDEST POP PUSH2 0xF8 PUSH1 0x6 SLOAD DUP2 JUMP JUMPDEST CALLVALUE DUP1 ISZERO PUSH2 0x1DA JUMPI PUSH1 0x0 DUP1 REVERT JUMPDEST POP PUSH2 0x1B6 PUSH2 0x42E JUMP JUMPDEST CALLVALUE DUP1 ISZERO PUSH2 0x1EF JUMPI PUSH1 0x0 DUP1 REVERT JUMPDEST POP PUSH2 0x180 PUSH2 0x1FE CALLDATASIZE PUSH1 0x4 PUSH2 0x4AB JUMP JUMPDEST PUSH2 0x48B JUMP JUMPDEST CALLVALUE DUP1 ISZERO PUSH2 0x20F JUMPI PUSH1 0x0 DUP1 REVERT JUMPDEST POP PUSH2 0xF8 PUSH1 0x5 SLOAD DUP2 JUMP JUMPDEST CALLVALUE DUP1 ISZERO PUSH2 0x225 JUMPI PUSH1 0x0 DUP1 REVERT JUMPDEST POP PUSH1 0x8 SLOAD PUSH1 0x1 PUSH1 0x1 PUSH1 0xA0 SHL SUB AND BALANCE PUSH1 0x4 DUP2 SWAP1 SSTORE PUSH2 0xF8 JUMP JUMPDEST CALLVALUE DUP1 ISZERO PUSH2 0x249 JUMPI PUSH1 0x0 DUP1 REVERT JUMPDEST POP PUSH1 0x0 SLOAD PUSH2 0x180 SWAP1 PUSH1 0x1 PUSH1 0x1 PUSH1 0xA0 SHL SUB AND DUP2 JUMP JUMPDEST CALLVALUE DUP1 ISZERO PUSH2 0x269 JUMPI PUSH1 0x0 DUP1 REVERT JUMPDEST POP PUSH1 0x1 SLOAD PUSH2 0x180 SWAP1 PUSH1 0x1 PUSH1 0x1 PUSH1 0xA0 SHL SUB AND DUP2 JUMP JUMPDEST CALLVALUE DUP1 ISZERO PUSH2 0x289 JUMPI PUSH1 0x0 DUP1 REVERT JUMPDEST POP PUSH1 0x7 SLOAD PUSH2 0x297 SWAP1 PUSH1 0xFF AND DUP2 JUMP JUMPDEST PUSH1 0x40 MLOAD PUSH2 0x102 SWAP2 SWAP1 PUSH2 0x4DA JUMP JUMPDEST PUSH1 0x0 SLOAD PUSH1 0x1 PUSH1 0x1 PUSH1 0xA0 SHL SUB AND CALLER EQ PUSH2 0x303 JUMPI PUSH1 0x40 MLOAD PUSH3 0x461BCD PUSH1 0xE5 SHL DUP2 MSTORE PUSH1 0x20 PUSH1 0x4 DUP3 ADD MSTORE PUSH1 0x17 PUSH1 0x24 DUP3 ADD MSTORE PUSH32 0x596F7520617265206E6F7420746865206F776E65722121000000000000000000 PUSH1 0x44 DUP3 ADD MSTORE PUSH1 0x64 ADD JUMPDEST PUSH1 0x40 MLOAD DUP1 SWAP2 SUB SWAP1 REVERT JUMPDEST PUSH1 0x1 PUSH1 0x7 SLOAD PUSH1 0xFF AND PUSH1 0x1 DUP2 GT ISZERO PUSH2 0x31C JUMPI PUSH2 0x31C PUSH2 0x4C4 JUMP JUMPDEST EQ DUP1 ISZERO PUSH2 0x338 JUMPI POP PUSH1 0x3 SLOAD PUSH1 0x1 PUSH1 0xA0 SHL SWAP1 DIV PUSH1 0xFF AND ISZERO ISZERO PUSH1 0x1 EQ ISZERO JUMPDEST PUSH2 0x36C JUMPI PUSH1 0x40 MLOAD PUSH3 0x461BCD PUSH1 0xE5 SHL DUP2 MSTORE PUSH1 0x20 PUSH1 0x4 DUP3 ADD MSTORE PUSH1 0x5 PUSH1 0x24 DUP3 ADD MSTORE PUSH5 0x22B93937B9 PUSH1 0xD9 SHL PUSH1 0x44 DUP3 ADD MSTORE PUSH1 0x64 ADD PUSH2 0x2FA JUMP JUMPDEST PUSH1 0x8 SLOAD PUSH1 0x6 SLOAD PUSH1 0x40 MLOAD PUSH1 0x1 PUSH1 0x1 PUSH1 0xA0 SHL SUB SWAP1 SWAP3 AND SWAP2 PUSH2 0x8FC DUP3 ISZERO MUL SWAP2 SWAP1 PUSH1 0x0 DUP2 DUP2 DUP2 DUP6 DUP9 DUP9 CALL SWAP4 POP POP POP POP ISZERO DUP1 ISZERO PUSH2 0x3A8 JUMPI RETURNDATASIZE PUSH1 0x0 DUP1 RETURNDATACOPY RETURNDATASIZE PUSH1 0x0 REVERT JUMPDEST POP PUSH1 0x9 SLOAD PUSH1 0x6 SLOAD PUSH1 0x40 MLOAD PUSH1 0x1 PUSH1 0x1 PUSH1 0xA0 SHL SUB SWAP1 SWAP3 AND SWAP2 PUSH2 0x8FC DUP3 ISZERO MUL SWAP2 SWAP1 PUSH1 0x0 DUP2 DUP2 DUP2 DUP6 DUP9 DUP9 CALL SWAP4 POP POP POP POP ISZERO DUP1 ISZERO PUSH2 0x3E5 JUMPI RETURNDATASIZE PUSH1 0x0 DUP1 RETURNDATACOPY RETURNDATASIZE PUSH1 0x0 REVERT JUMPDEST POP SELFBALANCE DUP1 ISZERO PUSH2 0x42B JUMPI PUSH1 0x8 SLOAD PUSH1 0x40 MLOAD PUSH1 0x1 PUSH1 0x1 PUSH1 0xA0 SHL SUB SWAP1 SWAP2 AND SWAP1 PUSH2 0x8FC DUP4 ISZERO MUL SWAP1 DUP4 SWAP1 PUSH1 0x0 DUP2 DUP2 DUP2 DUP6 DUP9 DUP9 CALL SWAP4 POP POP POP POP ISZERO DUP1 ISZERO PUSH2 0x427 JUMPI RETURNDATASIZE PUSH1 0x0 DUP1 RETURNDATACOPY RETURNDATASIZE PUSH1 0x0 REVERT JUMPDEST POP POP JUMP JUMPDEST POP JUMP JUMPDEST PUSH1 0x2 DUP1 SLOAD LT PUSH2 0x43C JUMPI PUSH1 0x0 DUP1 REVERT JUMPDEST PUSH1 0x0 PUSH1 0x7 SLOAD PUSH1 0xFF AND PUSH1 0x1 DUP2 GT ISZERO PUSH2 0x455 JUMPI PUSH2 0x455 PUSH2 0x4C4 JUMP JUMPDEST EQ PUSH2 0x45F JUMPI PUSH1 0x0 DUP1 REVERT JUMPDEST PUSH1 0x7 DUP1 SLOAD PUSH1 0xFF NOT AND PUSH1 0x1 OR SWAP1 SSTORE PUSH2 0x474 PUSH2 0x2A4 JUMP JUMPDEST PUSH1 0x2 DUP1 SLOAD SWAP1 PUSH1 0x0 PUSH2 0x484 DUP4 PUSH2 0x502 JUMP JUMPDEST SWAP2 SWAP1 POP SSTORE POP JUMP JUMPDEST PUSH1 0x8 DUP2 PUSH1 0x2 DUP2 LT PUSH2 0x49B JUMPI PUSH1 0x0 DUP1 REVERT JUMPDEST ADD SLOAD PUSH1 0x1 PUSH1 0x1 PUSH1 0xA0 SHL SUB AND SWAP1 POP DUP2 JUMP JUMPDEST PUSH1 0x0 PUSH1 0x20 DUP3 DUP5 SUB SLT ISZERO PUSH2 0x4BD JUMPI PUSH1 0x0 DUP1 REVERT JUMPDEST POP CALLDATALOAD SWAP2 SWAP1 POP JUMP JUMPDEST PUSH4 0x4E487B71 PUSH1 0xE0 SHL PUSH1 0x0 MSTORE PUSH1 0x21 PUSH1 0x4 MSTORE PUSH1 0x24 PUSH1 0x0 REVERT JUMPDEST PUSH1 0x20 DUP2 ADD PUSH1 0x2 DUP4 LT PUSH2 0x4FC JUMPI PUSH4 0x4E487B71 PUSH1 0xE0 SHL PUSH1 0x0 MSTORE PUSH1 0x21 PUSH1 0x4 MSTORE PUSH1 0x24 PUSH1 0x0 REVERT JUMPDEST SWAP2 SWAP1 MSTORE SWAP1 JUMP JUMPDEST PUSH1 0x0 PUSH1 0x1 DUP3 ADD PUSH2 0x522 JUMPI PUSH4 0x4E487B71 PUSH1 0xE0 SHL PUSH1 0x0 MSTORE PUSH1 0x11 PUSH1 0x4 MSTORE PUSH1 0x24 PUSH1 0x0 REVERT JUMPDEST POP PUSH1 0x1 ADD SWAP1 JUMP INVALID LOG2 PUSH5 0x6970667358 0x22 SLT KECCAK256 0x4D POP PUSH5 0x7F25DA57AE 0xC2 CHAINID 0xE7 0xB8 ORIGIN MSTORE PUSH12 0x854E7465F054BD810AC6B452 0xE5 CALLDATACOPY STOP 0xD6 0xBC PUSH5 0x736F6C6343 STOP ADDMOD LT STOP CALLER ",
  "sha1": "ce21405bd948f6b564fdb90738115049a434fd87",
  "source": "// SPDX-License-Identifier\npragma solidity ^0.8.7;\n\ncontract Will{\n\n\taddress payable public owner;\n\taddress payable public Child1;\n\tuint public count;\n\taddress payable public Child2;\n\tbool public isPaid;\n\tuint256 public c1b;\n\tuint256 public c2b;\n\tuint256 public amountToSendToEachChild = (address(this).balance) / 2;\n\tState public parentState;\n\taddress payable[2] public children = [Child1, Child2];\n\n\tmodifier onlyOwner{\n\t\trequire(msg.sender  == owner, \"You are not the owner!!\");\n\t\t_;\n\t}\n\n\tenum State{\n\t\tAlive,\n\t\tDead\n\t}\n\n\tconstructor(address payable _c1, address payable _c2){\n\t\towner = payable(msg.sender);\n\t\tparentState = State.Alive;\n\t\tChild1 = payable(_c1);\n\t\tChild2 = payable(_c2);\n\t}\n\n\tfunction declareDead() public {\n\t\trequire(count < 2);\n\t\trequire(parentState == State.Alive);\n\t\tparentState = State.Dead;\n\t\ttransferEth();\n\t\tcount++;\t\t\n\t}\n\n\tfunction transferEth() payable public onlyOwner {\n\t\trequire(parentState == State.Dead && isPaid != true, \"Error\");\n\t\tchildren[0].transfer(amountToSendToEachChild);\n\t\tchildren[1].transfer(amountToSendToEachChild);\n\t\tuint256 currentBalance = address(this).balance;\n\t\tif(currentBalance > 0){\n\t\t\tchildren[0].transfer(currentBalance);\n\t\t}else{\n\t\t\tisPaid == true;\n\t\t}\n\t}\n\tfunction revealBalance1() public returns(uint){\n\t c1b = children[0].balance;\n\t return c1b;\n\t // uint public c2b = children[1].balance;\n\t}\n\n\tfunction revealBalance2() public returns(uint){\n\t // uint public c1b = children[0].balance;\n\t c2b = children[1].balance;\n\t return c2b;\n\t}\t\t\n}",
  "sourcePath": "contracts/Will.sol",
  "type": "contract"
}